{"abi":[{"type":"constructor","inputs":[{"name":"_listingFee","type":"uint256","internalType":"uint256"}],"stateMutability":"nonpayable"},{"type":"function","name":"TARGET","inputs":[],"outputs":[{"name":"","type":"uint256","internalType":"uint256"}],"stateMutability":"view"},{"type":"function","name":"buyToken","inputs":[{"name":"_token","type":"address","internalType":"address"},{"name":"_amount","type":"uint256","internalType":"uint256"},{"name":"_referrer","type":"address","internalType":"address"}],"outputs":[],"stateMutability":"payable"},{"type":"function","name":"closeSale","inputs":[{"name":"_token","type":"address","internalType":"address"}],"outputs":[],"stateMutability":"nonpayable"},{"type":"function","name":"createToken","inputs":[{"name":"_name","type":"string","internalType":"string"},{"name":"_symbol","type":"string","internalType":"string"},{"name":"_description","type":"string","internalType":"string"},{"name":"_image","type":"string","internalType":"string"}],"outputs":[],"stateMutability":"payable"},{"type":"function","name":"getCostPrice","inputs":[{"name":"_sold","type":"uint256","internalType":"uint256"}],"outputs":[{"name":"","type":"uint256","internalType":"uint256"}],"stateMutability":"pure"},{"type":"function","name":"getTokenCreator","inputs":[{"name":"_index","type":"uint256","internalType":"uint256"}],"outputs":[{"name":"","type":"address","internalType":"address"}],"stateMutability":"view"},{"type":"function","name":"getTokenSale","inputs":[{"name":"_index","type":"uint256","internalType":"uint256"}],"outputs":[{"name":"","type":"tuple","internalType":"struct FactoryContract.TokenSale","components":[{"name":"token","type":"address","internalType":"address"},{"name":"name","type":"string","internalType":"string"},{"name":"image","type":"string","internalType":"string"},{"name":"description","type":"string","internalType":"string"},{"name":"creator","type":"address","internalType":"address"},{"name":"sold","type":"uint256","internalType":"uint256"},{"name":"raised","type":"uint256","internalType":"uint256"},{"name":"isOpen","type":"bool","internalType":"bool"}]}],"stateMutability":"view"},{"type":"function","name":"listingFee","inputs":[],"outputs":[{"name":"","type":"uint256","internalType":"uint256"}],"stateMutability":"view"},{"type":"function","name":"owner","inputs":[],"outputs":[{"name":"","type":"address","internalType":"address"}],"stateMutability":"view"},{"type":"function","name":"referralEarnings","inputs":[{"name":"","type":"address","internalType":"address"}],"outputs":[{"name":"","type":"uint256","internalType":"uint256"}],"stateMutability":"view"},{"type":"function","name":"tokenToSale","inputs":[{"name":"","type":"address","internalType":"address"}],"outputs":[{"name":"token","type":"address","internalType":"address"},{"name":"name","type":"string","internalType":"string"},{"name":"image","type":"string","internalType":"string"},{"name":"description","type":"string","internalType":"string"},{"name":"creator","type":"address","internalType":"address"},{"name":"sold","type":"uint256","internalType":"uint256"},{"name":"raised","type":"uint256","internalType":"uint256"},{"name":"isOpen","type":"bool","internalType":"bool"}],"stateMutability":"view"},{"type":"function","name":"tokens","inputs":[{"name":"","type":"uint256","internalType":"uint256"}],"outputs":[{"name":"","type":"address","internalType":"address"}],"stateMutability":"view"},{"type":"function","name":"totalTokens","inputs":[],"outputs":[{"name":"","type":"uint256","internalType":"uint256"}],"stateMutability":"view"},{"type":"event","name":"Buy","inputs":[{"name":"token","type":"address","indexed":true,"internalType":"address"},{"name":"amount","type":"uint256","indexed":false,"internalType":"uint256"}],"anonymous":false},{"type":"event","name":"Created","inputs":[{"name":"token","type":"address","indexed":true,"internalType":"address"}],"anonymous":false},{"type":"event","name":"ReferralReward","inputs":[{"name":"referrer","type":"address","indexed":true,"internalType":"address"},{"name":"amount","type":"uint256","indexed":false,"internalType":"uint256"}],"anonymous":false},{"type":"event","name":"SaleClosed","inputs":[{"name":"token","type":"address","indexed":true,"internalType":"address"}],"anonymous":false},{"type":"event","name":"Whitelisted","inputs":[{"name":"user","type":"address","indexed":true,"internalType":"address"}],"anonymous":false},{"type":"event","name":"Withdrawn","inputs":[{"name":"creator","type":"address","indexed":true,"internalType":"address"},{"name":"amount","type":"uint256","indexed":false,"internalType":"uint256"}],"anonymous":false},{"type":"error","name":"AmountToHigh","inputs":[]},{"type":"error","name":"AmountToLow","inputs":[]},{"type":"error","name":"IndexOutOfBounds","inputs":[]},{"type":"error","name":"InsufficientFunds","inputs":[]},{"type":"error","name":"ListingFeerequired","inputs":[]},{"type":"error","name":"NotAuthorized","inputs":[]},{"type":"error","name":"SaleIsClosed","inputs":[]}],"bytecode":{"object":"0x60a0604052348015600e575f5ffd5b50604051611fa6380380611fa6833981016040819052602b916043565b6080525f80546001600160a01b031916331790556059565b5f602082840312156052575f5ffd5b5051919050565b608051611f2e6100785f395f81816101550152610b530152611f2e5ff3fe6080604052600436106100bf575f3560e01c80638da5cb5b1161007c578063a076965911610057578063a076965914610229578063c07b528a1461023c578063cc1f2afa14610267578063f20d6a2a14610282575f5ffd5b80638da5cb5b146101b9578063934689a9146101d75780639c0ad5ed146101f6575f5ffd5b80631fbc147b146100c35780634f64b2be146100f8578063692bf4a81461012f5780636a1b7ecc1461014457806379491370146101855780637e1c0c09146101a4575b5f5ffd5b3480156100ce575f5ffd5b506100e26100dd366004610dae565b6102a1565b6040516100ef9190610df3565b60405180910390f35b348015610103575f5ffd5b50610117610112366004610dae565b61053b565b6040516001600160a01b0390911681526020016100ef565b61014261013d366004610ecd565b610563565b005b34801561014f575f5ffd5b506101777f000000000000000000000000000000000000000000000000000000000000000081565b6040519081526020016100ef565b348015610190575f5ffd5b5061014261019f366004610f06565b61087d565b3480156101af575f5ffd5b5061017760025481565b3480156101c4575f5ffd5b505f54610117906001600160a01b031681565b3480156101e2575f5ffd5b506101176101f1366004610dae565b6108ff565b348015610201575f5ffd5b50610215610210366004610f06565b610967565b6040516100ef989796959493929190610f26565b610142610237366004611042565b610b51565b348015610247575f5ffd5b50610177610256366004610f06565b60046020525f908152604090205481565b348015610272575f5ffd5b506101776729a2241af62c000081565b34801561028d575f5ffd5b5061017761029c366004610dae565b610d63565b6102f86040518061010001604052805f6001600160a01b031681526020016060815260200160608152602001606081526020015f6001600160a01b031681526020015f81526020015f81526020015f151581525090565b60035f6001848154811061030e5761030e6110fb565b5f9182526020808320909101546001600160a01b03908116845283820194909452604092830190912082516101008101909352805490931682526001830180549293929184019161035e9061110f565b80601f016020809104026020016040519081016040528092919081815260200182805461038a9061110f565b80156103d55780601f106103ac576101008083540402835291602001916103d5565b820191905f5260205f20905b8154815290600101906020018083116103b857829003601f168201915b505050505081526020016002820180546103ee9061110f565b80601f016020809104026020016040519081016040528092919081815260200182805461041a9061110f565b80156104655780601f1061043c57610100808354040283529160200191610465565b820191905f5260205f20905b81548152906001019060200180831161044857829003601f168201915b5050505050815260200160038201805461047e9061110f565b80601f01602080910402602001604051908101604052809291908181526020018280546104aa9061110f565b80156104f55780601f106104cc576101008083540402835291602001916104f5565b820191905f5260205f20905b8154815290600101906020018083116104d857829003601f168201915b505050918352505060048201546001600160a01b03166020820152600582015460408201526006820154606082015260079091015460ff16151560809091015292915050565b6001818154811061054a575f80fd5b5f918252602090912001546001600160a01b0316905081565b6001600160a01b0383165f908152600360205260409020600781015460ff1615156001146105a45760405163579562bd60e11b815260040160405180910390fd5b670de0b6b3a76400008310156105cd57604051638e18d87160e01b815260040160405180910390fd5b69021e19e0c9bab24000008311156105f857604051630977594360e21b815260040160405180910390fd5b5f6106068260050154610d63565b90505f6106186402540be4008661115b565b610622908361117a565b9050803410156106455760405163356680b760e01b815260040160405180910390fd5b5f606461065383600361117a565b61065d919061115b565b90505f606461066d84600261117a565b610677919061115b565b905086856005015f82825461068c9190611197565b9091555081905061069d83856111aa565b6106a791906111aa565b856006015f8282546106b99190611197565b909155505060058501546969e10de76676d08000001115806106e757506729a2241af62c0000856006015410155b156106f95760078501805460ff191690555b60405163a9059cbb60e01b8152336004820152602481018890526001600160a01b0389169063a9059cbb906044016020604051808303815f875af1158015610743573d5f5f3e3d5ffd5b505050506040513d601f19601f8201168201806040525081019061076791906111bd565b505f80546040516001600160a01b039091169184156108fc02918591818181858888f1935050505015801561079e573d5f5f3e3d5ffd5b506001600160a01b038616158015906107c057506001600160a01b0386163314155b15610830576001600160a01b0386165f90815260046020526040812080548392906107ec908490611197565b90915550506040518181526001600160a01b038716907fe7e15037b577ae985e6019722e882f64c5c6a2124ccc573bab8f79bda0a0c5519060200160405180910390a25b876001600160a01b03167fe3d4187f6ca4248660cc0ac8b8056515bac4a8132be2eca31d6d0cc170722a7e8860405161086b91815260200190565b60405180910390a25050505050505050565b6001600160a01b038082165f908152600360205260409020600481015490911633146108bc5760405163ea8e4eb560e01b815260040160405180910390fd5b60078101805460ff191690556040516001600160a01b038316907f5caab17bad67c53e59f2f0cbddf48b5cbe8616c7facf4543348ce7ae4fbeaa9b905f90a25050565b6001545f90821061092357604051634e23d03560e01b815260040160405180910390fd5b5f60018381548110610937576109376110fb565b5f9182526020808320909101546001600160a01b0390811683526003909152604090912060040154169392505050565b60036020525f9081526040902080546001820180546001600160a01b0390921692916109929061110f565b80601f01602080910402602001604051908101604052809291908181526020018280546109be9061110f565b8015610a095780601f106109e057610100808354040283529160200191610a09565b820191905f5260205f20905b8154815290600101906020018083116109ec57829003601f168201915b505050505090806002018054610a1e9061110f565b80601f0160208091040260200160405190810160405280929190818152602001828054610a4a9061110f565b8015610a955780601f10610a6c57610100808354040283529160200191610a95565b820191905f5260205f20905b815481529060010190602001808311610a7857829003601f168201915b505050505090806003018054610aaa9061110f565b80601f0160208091040260200160405190810160405280929190818152602001828054610ad69061110f565b8015610b215780601f10610af857610100808354040283529160200191610b21565b820191905f5260205f20905b815481529060010190602001808311610b0457829003601f168201915b5050505060048301546005840154600685015460079095015493946001600160a01b039092169390925060ff1688565b7f0000000000000000000000000000000000000000000000000000000000000000341015610b92576040516364f6fcd960e11b815260040160405180910390fd5b5f33858569d3c21bcecceda1000000604051610bad90610da1565b610bba94939291906111dc565b604051809103905ff080158015610bd3573d5f5f3e3d5ffd5b506001805480820182555f9182527fb10e2d527612073b26eecdfd717e6a320cf44b4afac2b0732d9fcbe2b7fa0cf60180546001600160a01b0319166001600160a01b0384161790556002805492935090610c2d83611223565b909155505060408051610100810182526001600160a01b0383811680835260208084018a8152848601889052606085018990523360808601525f60a0860181905260c08601819052600160e087018190529381526003909252949020835181546001600160a01b031916931692909217825592519192839290820190610cb39082611287565b5060408201516002820190610cc89082611287565b5060608201516003820190610cdd9082611287565b5060808201516004820180546001600160a01b0319166001600160a01b0392831617905560a0830151600583015560c0830151600683015560e0909201516007909101805460ff1916911515919091179055604051908316907f1449abf21e49fd025f33495e77f7b1461caefdd3d4bb646424a3f445c4576a5b905f90a2505050505050565b5f655af3107a40008069021e19e0c9bab24000008382610d83838861115b565b610d8d908561117a565b610d979190611197565b9695505050505050565b610bb68061134383390190565b5f60208284031215610dbe575f5ffd5b5035919050565b5f81518084528060208401602086015e5f602082860101526020601f19601f83011685010191505092915050565b60208152610e0d6020820183516001600160a01b03169052565b5f60208301516101006040840152610e29610120840182610dc5565b90506040840151601f19848303016060850152610e468282610dc5565b9150506060840151601f19848303016080850152610e648282610dc5565b9150506080840151610e8160a08501826001600160a01b03169052565b5060a084015160c084015260c084015160e084015260e0840151610eaa61010085018215159052565b509392505050565b80356001600160a01b0381168114610ec8575f5ffd5b919050565b5f5f5f60608486031215610edf575f5ffd5b610ee884610eb2565b925060208401359150610efd60408501610eb2565b90509250925092565b5f60208284031215610f16575f5ffd5b610f1f82610eb2565b9392505050565b6001600160a01b0389168152610100602082018190525f90610f4a9083018a610dc5565b8281036040840152610f5c818a610dc5565b90508281036060840152610f708189610dc5565b6001600160a01b03979097166080840152505060a081019390935260c0830191909152151560e090910152949350505050565b634e487b7160e01b5f52604160045260245ffd5b5f82601f830112610fc6575f5ffd5b813567ffffffffffffffff811115610fe057610fe0610fa3565b604051601f8201601f19908116603f0116810167ffffffffffffffff8111828210171561100f5761100f610fa3565b604052818152838201602001851015611026575f5ffd5b816020850160208301375f918101602001919091529392505050565b5f5f5f5f60808587031215611055575f5ffd5b843567ffffffffffffffff81111561106b575f5ffd5b61107787828801610fb7565b945050602085013567ffffffffffffffff811115611093575f5ffd5b61109f87828801610fb7565b935050604085013567ffffffffffffffff8111156110bb575f5ffd5b6110c787828801610fb7565b925050606085013567ffffffffffffffff8111156110e3575f5ffd5b6110ef87828801610fb7565b91505092959194509250565b634e487b7160e01b5f52603260045260245ffd5b600181811c9082168061112357607f821691505b60208210810361114157634e487b7160e01b5f52602260045260245ffd5b50919050565b634e487b7160e01b5f52601160045260245ffd5b5f8261117557634e487b7160e01b5f52601260045260245ffd5b500490565b808202811582820484141761119157611191611147565b92915050565b8082018082111561119157611191611147565b8181038181111561119157611191611147565b5f602082840312156111cd575f5ffd5b81518015158114610f1f575f5ffd5b6001600160a01b03851681526080602082018190525f906111ff90830186610dc5565b82810360408401526112118186610dc5565b91505082606083015295945050505050565b5f6001820161123457611234611147565b5060010190565b601f82111561128257805f5260205f20601f840160051c810160208510156112605750805b601f840160051c820191505b8181101561127f575f815560010161126c565b50505b505050565b815167ffffffffffffffff8111156112a1576112a1610fa3565b6112b5816112af845461110f565b8461123b565b6020601f8211600181146112e7575f83156112d05750848201515b5f19600385901b1c1916600184901b17845561127f565b5f84815260208120601f198516915b8281101561131657878501518255602094850194600190920191016112f6565b508482101561133357868401515f19600387901b60f8161c191681555b50505050600190811b0190555056fe608060405234801561000f575f5ffd5b50604051610bb6380380610bb683398101604081905261002e91610289565b8282600361003c8382610397565b5060046100498282610397565b505060058054336001600160a01b03199182168117909255600680549091166001600160a01b038816179055610080915082610089565b50505050610476565b6001600160a01b0382166100b75760405163ec442f0560e01b81525f60048201526024015b60405180910390fd5b6100c25f83836100c6565b5050565b6001600160a01b0383166100f0578060025f8282546100e59190610451565b909155506101609050565b6001600160a01b0383165f90815260208190526040902054818110156101425760405163391434e360e21b81526001600160a01b038516600482015260248101829052604481018390526064016100ae565b6001600160a01b0384165f9081526020819052604090209082900390555b6001600160a01b03821661017c5760028054829003905561019a565b6001600160a01b0382165f9081526020819052604090208054820190555b816001600160a01b0316836001600160a01b03167fddf252ad1be2c89b69c2b068fc378daa952ba7f163c4a11628f55a4df523b3ef836040516101df91815260200190565b60405180910390a3505050565b634e487b7160e01b5f52604160045260245ffd5b5f82601f83011261020f575f5ffd5b81516001600160401b03811115610228576102286101ec565b604051601f8201601f19908116603f011681016001600160401b0381118282101715610256576102566101ec565b60405281815283820160200185101561026d575f5ffd5b8160208501602083015e5f918101602001919091529392505050565b5f5f5f5f6080858703121561029c575f5ffd5b84516001600160a01b03811681146102b2575f5ffd5b60208601519094506001600160401b038111156102cd575f5ffd5b6102d987828801610200565b604087015190945090506001600160401b038111156102f6575f5ffd5b61030287828801610200565b606096909601519497939650505050565b600181811c9082168061032757607f821691505b60208210810361034557634e487b7160e01b5f52602260045260245ffd5b50919050565b601f82111561039257805f5260205f20601f840160051c810160208510156103705750805b601f840160051c820191505b8181101561038f575f815560010161037c565b50505b505050565b81516001600160401b038111156103b0576103b06101ec565b6103c4816103be8454610313565b8461034b565b6020601f8211600181146103f6575f83156103df5750848201515b5f19600385901b1c1916600184901b17845561038f565b5f84815260208120601f198516915b828110156104255787850151825560209485019460019092019101610405565b508482101561044257868401515f19600387901b60f8161c191681555b50505050600190811b01905550565b8082018082111561047057634e487b7160e01b5f52601160045260245ffd5b92915050565b610733806104835f395ff3fe608060405234801561000f575f5ffd5b50600436106100a6575f3560e01c8063313ce5671161006e578063313ce5671461013757806370a08231146101465780638da5cb5b1461016e57806395d89b4114610181578063a9059cbb14610189578063dd62ed3e1461019c575f5ffd5b806302d05d3f146100aa57806306fdde03146100da578063095ea7b3146100ef57806318160ddd1461011257806323b872dd14610124575b5f5ffd5b6006546100bd906001600160a01b031681565b6040516001600160a01b0390911681526020015b60405180910390f35b6100e26101d4565b6040516100d191906105a3565b6101026100fd3660046105f3565b610264565b60405190151581526020016100d1565b6002545b6040519081526020016100d1565b61010261013236600461061b565b61027d565b604051601281526020016100d1565b610116610154366004610655565b6001600160a01b03165f9081526020819052604090205490565b6005546100bd906001600160a01b031681565b6100e26102a0565b6101026101973660046105f3565b6102af565b6101166101aa366004610675565b6001600160a01b039182165f90815260016020908152604080832093909416825291909152205490565b6060600380546101e3906106a6565b80601f016020809104026020016040519081016040528092919081815260200182805461020f906106a6565b801561025a5780601f106102315761010080835404028352916020019161025a565b820191905f5260205f20905b81548152906001019060200180831161023d57829003601f168201915b5050505050905090565b5f336102718185856102bc565b60019150505b92915050565b5f3361028a8582856102ce565b61029585858561034e565b506001949350505050565b6060600480546101e3906106a6565b5f3361027181858561034e565b6102c983838360016103ab565b505050565b6001600160a01b038381165f908152600160209081526040808320938616835292905220545f198114610348578181101561033a57604051637dc7a0d960e11b81526001600160a01b038416600482015260248101829052604481018390526064015b60405180910390fd5b61034884848484035f6103ab565b50505050565b6001600160a01b03831661037757604051634b637e8f60e11b81525f6004820152602401610331565b6001600160a01b0382166103a05760405163ec442f0560e01b81525f6004820152602401610331565b6102c983838361047d565b6001600160a01b0384166103d45760405163e602df0560e01b81525f6004820152602401610331565b6001600160a01b0383166103fd57604051634a1406b160e11b81525f6004820152602401610331565b6001600160a01b038085165f908152600160209081526040808320938716835292905220829055801561034857826001600160a01b0316846001600160a01b03167f8c5be1e5ebec7d5bd14f71427d1e84f3dd0314c0f7b2291e5b200ac8c7c3b9258460405161046f91815260200190565b60405180910390a350505050565b6001600160a01b0383166104a7578060025f82825461049c91906106de565b909155506105179050565b6001600160a01b0383165f90815260208190526040902054818110156104f95760405163391434e360e21b81526001600160a01b03851660048201526024810182905260448101839052606401610331565b6001600160a01b0384165f9081526020819052604090209082900390555b6001600160a01b03821661053357600280548290039055610551565b6001600160a01b0382165f9081526020819052604090208054820190555b816001600160a01b0316836001600160a01b03167fddf252ad1be2c89b69c2b068fc378daa952ba7f163c4a11628f55a4df523b3ef8360405161059691815260200190565b60405180910390a3505050565b602081525f82518060208401528060208501604085015e5f604082850101526040601f19601f83011684010191505092915050565b80356001600160a01b03811681146105ee575f5ffd5b919050565b5f5f60408385031215610604575f5ffd5b61060d836105d8565b946020939093013593505050565b5f5f5f6060848603121561062d575f5ffd5b610636846105d8565b9250610644602085016105d8565b929592945050506040919091013590565b5f60208284031215610665575f5ffd5b61066e826105d8565b9392505050565b5f5f60408385031215610686575f5ffd5b61068f836105d8565b915061069d602084016105d8565b90509250929050565b600181811c908216806106ba57607f821691505b6020821081036106d857634e487b7160e01b5f52602260045260245ffd5b50919050565b8082018082111561027757634e487b7160e01b5f52601160045260245ffdfea26469706673582212206347ad87f4bb6072ddb7cb3c31119f25ebf748522b345013484e80cfd39a553964736f6c634300081b0033a264697066735822122030a98044429addb7721c1548ce181589879a9127c195c9d3fce1a6e54eae7a2364736f6c634300081b0033","linkReferences":{}},"methodIdentifiers":{"TARGET()":"cc1f2afa","buyToken(address,uint256,address)":"692bf4a8","closeSale(address)":"79491370","createToken(string,string,string,string)":"a0769659","getCostPrice(uint256)":"f20d6a2a","getTokenCreator(uint256)":"934689a9","getTokenSale(uint256)":"1fbc147b","listingFee()":"6a1b7ecc","owner()":"8da5cb5b","referralEarnings(address)":"c07b528a","tokenToSale(address)":"9c0ad5ed","tokens(uint256)":"4f64b2be","totalTokens()":"7e1c0c09"},"id":25}